:020000040800F2
:1000000010050020C5000008CD000008CF00000842
:1000100000000000000000000000000000000000E0
:10002000000000000000000000000000D1000008F7
:100030000000000000000000D300000819120008B2
:10004000D700000800000000D7000008D700000813
:10005000D70000082102000831020008D70000087C
:1000600000000000D7000008D7000008D7000008F3
:10007000D7000008D7000008D700000800000000E3
:10008000D70000080000000000000000D7000008B2
:1000900000000000D7000008D7000008D7000008C3
:1000A00000000000D700000800000000191600083A
:1000B0000348854600F046F800480047B919000893
:1000C000100500200448804704480047FEE7FEE78B
:1000D000FEE7FEE7FEE7FEE79D120008B10000081C
:1000E00030B50B46014600202022012409E00D46D0
:1000F000D5409D4205D31D469540491B2546954058
:1001000040191546521E002DF1DC30BD03460B434D
:100110009B0703D009E008C9121F08C0042AFAD2BD
:1001200003E00B780370401C491C521EF9D2704743
:100130000321001D401E037812021A43491EF9D5FF
:1001400010467047064C0125064E05E0E36807CCD3
:100150002B430C3C98471034B442F7D3FFF7ACFF65
:100160000C1C00082C1C0008F7B50546029800245A
:100170000E46470808E0A0008019FFF7D9FF1021BC
:10018000C84129680860641CA742F4D80298C007D7
:1001900003D0A0002968305A088028680068FEBD96
:1001A000FEB505460024900817460E4601900EE065
:1001B000A00080190090FFF7BBFF00BA010A009869
:1001C0000902C0780143286801600198641CA042BC
:1001D000EED8B80721D0B807800F012803D1A100BD
:1001E0002A68715C1170022808D1A000801941783A
:1001F000027808021043296840BA0880F843800753
:100200000BD1A000801941780278090211432A68B5
:1002100049BA118029688078087028680068FEBD96
:1002200010B5012000F0C2F8022000F0BFF810BDA8
:1002300010B5042000F0BAF8082000F0B7F810BD9F
:1002400000207047F8B504460020257F0346012DA5
:100250000FD001252577022666772668B7682F43D9
:10026000B760266A012E10D0022E12D0032E14D1B0
:1002700006E00220F8BD83002668CB583360401C9E
:100280009042F8D32068036807E02046FFF788FF14
:1002900002E02046FFF768FF0346657700202077DD
:1002A0001846F8BD10B504000DD0607F002803D1BA
:1002B0002077204600F024F8022060772046FFF7E0
:1002C000BFFF002801D0012010BD6079002814D0A4
:1002D0002069216808612068816860229143626911
:1002E000114381602068816880229143A269114393
:1002F000816001206077002010BD0020C043E8E746
:1003000008B500680549884207D10548426940217F
:100310000A43426140690840009008BD0030024035
:100320000010024070B50024014620314A78022AAC
:1003300003D004218163012416E0026813680E25AE
:10034000AB431360026813685B085B001360012510
:10035000036C2A469A40C36B5A604D7000220A70A3
:10036000416B002900D08847204670BD31B500F0B0
:10037000D7F8009C0546601C00D0641C00F0D0F843
:10038000401BA042FAD338BD10B5052000F012F989
:10039000062000F00FF90920C00600690249000795
:1003A000000F088010BD00000C00002010B50449AB
:1003B0004A69024202D04861FFF7E6FF10BD000023
:1003C00000040140F8B500228DE001249440A446C9
:1003D00023407DD04C68022C01D0122C0CD1D408C3
:1003E000A4002618356A5407E40E0F27A740BD4322
:1003F0000F69A7402F433762066855000324AC40BD
:100400000F79A643BF07BF0FAF40374307604E6861
:10041000012E05D0022E03D0112E01D0122E0ED1A6
:100420008668CF68A643AF40374387604768664613
:10043000B7430E79F606F60F96403E434660C6680F
:10044000A6438C68AC403443C4604C68E40049D592
:10045000284CA56901263543A561A4699508344057
:100460000094254CAD002F19BD689407240F0F266A
:10047000A640B5430926F606B04201D100260FE09A
:100480001E4EB04201D101260AE01D4EB04201D1FC
:10049000022605E01B4EB04201D1032600E00526EE
:1004A000A6402E43BE60184D2C684E689C43F60350
:1004B00000D51C432C606C684E689C43B60300D585
:1004C0001C436C60AC684E689C43F60202D500E0A9
:1004D00008E01C43AC60EC684E689C43B60200D553
:1004E0001C43EC60521C0B681C46D44000D06CE7E7
:1004F000F8BD000000100240000001400004004868
:1005000000080048000C00480004014042694A40CD
:1005100042617047002A01D0816170478162704753
:100520000148006870470000180000200248016878
:10053000491C0160704700001800002010B5002021
:1005400000F004F800F014F8002010BD10B50446C7
:1005500000F054F97D21C900FFF7C2FD00F060FBF7
:1005600000222146501E00F039F8002010BD000086
:1005700008B50F48816901221143816181691140E9
:100580000091C26901040A43C261C06900220840A7
:1005900000901146501F00F021F800221146901ED5
:1005A00000F01CF800221146501E00F017F808BD9C
:1005B00000100240C106C90E0120884001490860B0
:1005C0007047000080E100E0C106C90E01208840AC
:1005D000014908607047000000E100E010B500F03C
:1005E000F9FD10BDF8B504460068364DC00354D57A
:1005F000E8690026C00007D4E86929040843E861D7
:10060000E8690840012600902F480168C90511D407
:10061000014608688A1510430860FFF781FF074606
:1006200004E0FFF77DFFC01B642823D8264800683C
:10063000C005F6D5286A0321090208401FD0626868
:100640000A4082421BD0286A2A6A88430121090491
:100650000A432A622A6A8A432A622862C0070ED0A5
:10066000FFF75EFF074607E0FFF75AFFC11B174879
:10067000814201D90320F8BD286A8007F4D5286A91
:10068000032109028843616808432862002E04D0D0
:10069000E869012109078843E8612078C00705D08F
:1006A000286BA168800880000843286320788006B2
:1006B00005D5286B10218843E16808432863002092
:1006C000F8BD0000001002400070004088130000D8
:1006D000F8B5044644480E460068C007C00FB04253
:1006E0000AD2414801684908490031430160006865
:1006F000C007C00FB0425CD120783C4F800705D5C1
:100700007868F0218843A168084378602078C007A2
:100710003FD06068012813D03968022813D08907B8
:10072000002946DA79688908890001437960FFF772
:10073000F7FE0546606801280DD0022817D024E096
:1007400039688903ECE78901EAE7FFF7E9FE411B15
:100750002748814217D878680007800F0128F4D114
:1007600017E0FFF7DDFE411B214881420BD8786876
:100770000007800F0228F4D10BE0FFF7D1FE411BE8
:100780001B48814201D90320F8BD78680007800F1B
:10079000F3D115480168C907C90FB1420BD90168E7
:1007A00049084900314301600068C007C00FB042EA
:1007B00001D00120F8BD2078400706D578680721D0
:1007C00009028843E1680843786000F02DF87968F1
:1007D000084A0906090F515CC84007490860002013
:1007E000FFF7B4FE0020F8BD0020024000100240D8
:1007F00088130000F41B0008140000200148006862
:10080000704700001400002004480549006849684A
:10081000044A4905490F515CC84070471400002044
:1008200000100240041C000810B513A00FC888B0C7
:100830006C460FC414A00FC80FC4174B5A680C2085
:1008400011460140154804290FD008290DD1910205
:10085000090F6C46645CD96A04AB0907090F595C3F
:10086000D20304D5FFF73CFC604308B010BD0C492F
:1008700020464843F9E7000002030405060708097B
:100880000A0B0C0D0E0F10100102030405060708D9
:10089000090A0B0C0D0E0F100010024000127A0016
:1008A00000093D00FEB504460078D04DC00746D093
:1008B00068680007800F012807D068680007800F6C
:1008C000022809D16868C00306D52868800336D598
:1008D000606800287ED032E00121606809040128A8
:1008E0000AD08A00002801D005280FD02868884344
:1008F00028602868904301E0286808432860606801
:10090000002810D0FFF70CFE064608E028681043C8
:100910002860F1E7FFF704FE801B64286FD8286881
:100920008003F7D50BE0FFF7FBFD064604E0FFF779
:10093000F7FD801B6428F1D828688003F7D420785D
:100940000126800700283BDA68680007800F07D07F
:1009500068680007800F022809D16868C00306D4C0
:100960002868800715D5E068012833D111E0E068D8
:100970000028286815D030432860FFF7D1FD0746CE
:1009800004E0FFF7CDFDC01B0228C7D82868800708
:10099000F7D52868F82188432169C90008432860F1
:1009A0000EE0400840002860FFF7BAFD074604E06B
:1009B000FFF7B6FDC01B0228B0D828688007F7D41F
:1009C0002078000724D5E0690028686A10D03043F9
:1009D000686200E007E1FFF7A3FD074604E0FFF7C8
:1009E0009FFDC01B022899D8686A8007F7D50FE0E1
:1009F000400840006862FFF793FD074605E09DE070
:100A0000FFF78EFDC01B022888D8686A8007F7D4DC
:100A1000207804274007002860DA00200190E86968
:100A2000C00008D4E969B8060143E961E9690140F9
:100A30000120009101906E480168C90511D4016838
:100A4000821511430160FFF76BFD009005E0FFF791
:100A500067FD0099401A642870D865480068C00591
:100A6000F5D5A06801280AD0002801D0052810D0AB
:100A7000286A400840002862286AB84301E0286AD2
:100A800030432862A068002812D0FFF749FD00908B
:100A90000AE0286A38432862F1E7FFF741FD009930
:100AA000411A5448814249D8286A8007F5D50DE09B
:100AB000FFF736FD009006E0FFF732FD0099411A7E
:100AC0004C4881423AD8286A8007F5D4019800281A
:100AD00004D0E969012000078143E9612078C0065C
:100AE00035D5606901280CD0401D686B23D0384390
:100AF0006863686B400840006863FFF711FD0646B5
:100B000022E0686B38436863686B30436863FFF7C3
:100B100007FD064604E0FFF703FD801B02285BD8B3
:100B2000686B8007F7D5686BF8218843A169C90015
:100B3000084368630BE0B8436863F4E74CE0FFF7F1
:100B4000EFFC801B022847D8686B8007F7D4206A27
:100B5000002846D069680907890F022943D0012778
:100B60003F060228286805D0B8432860FFF7D8FC64
:100B7000044633E0B8432860FFF7D2FC064604E0A1
:100B8000FFF7CEFC801B022826D828688001F7D406
:100B9000E86AE16A000900010843E862616AA06A44
:100BA000084369683D22120491430843686028683D
:100BB00038432860FFF7B4FC044604E0FFF7B0FCBC
:100BC000001B022808D828688001F7D509E0FFF744
:100BD000A7FC001B022801D90320FEBD2868800164
:100BE000F5D40020FEBD0120FEBD00000010024033
:100BF000007000408813000004220449042808699A
:100C000002D09043086170471043FBE700E000E02A
:100C100010B50520FFF7D8FC0620FFF7D5FC10BD66
:100C2000094910B5401E884201D9012010BD074C6A
:100C300060610321081F00F0CDFA0020A0610720A9
:100C40002061002010BD0000FFFFFF0000E000E079
:100C500010B5FFF7DDFF10BD70470000F8B5026862
:100C60000446D069116805072D0F07D1830605D505
:100C70008B0603D5204600F0D3FBF8BD9368002D0A
:100C800064D0DD07ED0FFF2621360E402E435DD0E8
:100C9000C60706D0CE0504D501261662E26E3243A1
:100CA000E266860702220427002E06DADE0704D059
:100CB00026683262E66E3E43E666460706D5DB07E7
:100CC00004D023681F62E36E1343E366020709D56D
:100CD00020220A402A4305D0236808221A62E36EC4
:100CE0001343E366E26E002AC7D0800604D5880667
:100CF00002D5204600F094FBE06E000703D4206884
:100D0000806840061CD5204600F06EFB2068816894
:100D1000490611D58168402291438160606E0028A8
:100D20000AD012494163606EFFF7FCFA0028A4D094
:100D3000606E416B8847F8BD2046FFF78DFFF8BD18
:100D40002046FFF789FF0020E066F8BD020605D5C2
:100D50000A0603D5204600F02BFCF8BD4006FCD562
:100D60004806FAD5204600F04EFBF8BDD513000822
:100D700070B5040005D025466035687A002802D099
:100D800006E0012070BD00202872204600F026F801
:100D900024206872206801684908490001602046E3
:100DA00000F07CFB0128EDD0606A002802D02046CC
:100DB00000F0A2FA206841680122D202914341600A
:100DC00020688168082291438160206801680122BF
:100DD00011430160204600F0F4FA70BD00B50068D0
:100DE000124987B088421FD11148826901218903C5
:100DF0000A43826180690840059003204002009008
:100E00000220019001210320039002910491092006
:100E10006946C006FFF7D6FA002203211B20FFF720
:100E2000DDFB1B20FFF7D0FB07B000BD0038014001
:100E30000010024070B5034660339C7A202C39D1F3
:100E400000290BD0002A09D0012584682D03AC426B
:100E500006D10669002E03D1CE0701D0012070BD56
:100E60001E7A012E26D001261E72416501464031B0
:100E70000A834A83FF22AC4204D10469002C07D1C3
:100E80000D4A05E0002C04D10469002C00D07F221B
:100E90008A830021C16622229A72197201688A68C7
:100EA00032438A6000680168FF22213211430160E9
:100EB000002070BD022070BDFF01000030B585B07C
:100EC000142238A16846FFF721F93B4DA8884F242A
:100ED000C0B23A4930282CD031282CD032282CD01E
:100EE00033282CD034282CD035282CD036282CD0A0
:100EF00037282CD038282CD039282CD041282CD079
:100F000042282CD043282CD044282CD045282CD043
:100F100046282CD052282DD0562831D0582832D0EF
:100F20005A2836D04524088800F028FE2C8105B0C8
:100F300030BD00201CE001201AE0022018E0032050
:100F400016E0042014E0052012E0062010E007203F
:100F50000EE008200CE009200AE00A2008E00B203F
:100F600006E00C2004E00D2002E00E2000E00F203F
:100F70000880D8E700F0D8FD6946085C2881D6E7EC
:100F800004220F4901E00F4904220F4800F022F823
:100F9000CDE7BFF34F8F0E490C48C860BFF34F8FAA
:100FA00000BFFDE73031323334353637383941420E
:100FB000434445460000000020380140080000205E
:100FC000FC7F000810000020A00000200400FA05AB
:100FD00000ED00E030B5034660335C7A202C23D16D
:100FE00000290BD0002A09D0012584682D03AC42CA
:100FF00006D10469002C03D1CC0701D0012030BDFB
:101000001C7A012C10D0C164014640310A824A8208
:101010000021C16621225A7219720068016880227B
:1010200011430160002030BD022030BD7047000038
:1010300010B50F480D4901600021017141714161F6
:10104000816103210162FFF72DF9002803D03D21C2
:1010500008A000F0E9FA0648FFF7F2F8002803D0EC
:10106000422104A000F0E0FA10BD00000030024070
:101070007C0000202E2E2F5372632F6372632E6329
:1010800000000000F0B5384887B0426901218905A9
:101090000A43426142690A400592426949110A4382
:1010A000426142690A400592426949000A4342612D
:1010B000406900220840059003212C48FFF72AFAD6
:1010C00001221B212A48FFF725FA99252D02092024
:1010D00000222946C006FFF71DFA002220212448DD
:1010E000FFF718FA002603241127029669461F48C5
:1010F000019703960094FFF765F90F2000901D48B3
:101100000190092069460296C006FFF75BF9F020BE
:1011100000900920019669460296C006FFF752F931
:101120001B20009002966946019703961048FFF72E
:1011300049F900950125092002966946C0060396E3
:101140000195FFF73FF92020694661C169460848CB
:101150000396FFF737F9C0206A4651C26946044832
:10116000FFF730F907B0F0BD00100240001400484E
:10117000000400480000311010B511480F4901600B
:101180004B21490241600121090381600122920241
:1011900002610021C1600C22426101228161D203FF
:1011A000C261121102624162FFF7E2FD002803D022
:1011B000442104A000F038FA10BD000000380140BE
:1011C000A00000202E2E2F5372632F75736172744E
:1011D0002E6300008307FF22DB0E9A408907090E69
:1011E000994000280BDA0007000F083883080848E8
:1011F0009B001818C36993430B43C361704783086E
:1012000004489B001818036893430B43036070471E
:1012100000ED00E000E400E010B5FFF787F9FFF70C
:1012200017FD10BD70B594B000240225102009945C
:10123000049001260095C00303960A9008950B942C
:101240006846FFF72FFB002800D0FEE707200C9030
:10125000B0200E900D9500210F940CA8FFF738FADE
:10126000002800D0FEE7109610A81296FFF7BAF9F2
:10127000002800D0FEE7FFF7C1FA7D21C900FEF784
:101280002FFFFFF7CDFC0420FFF7B6FC002211462C
:10129000501EFFF7A3F914B070BD00001348016899
:1012A0000122114301604168114A11404160016807
:1012B000104A1140016001680122920491430160CB
:1012C00041683F22120491434160C16A0909090142
:1012D000C162016BFF22143291430163416B4908E3
:1012E0004900416300218160704700000010024006
:1012F0000CB8FF08FFFFF6FE10B5818CC90707D0B8
:1013000001684A6801235B049A43836A1A434A606E
:10131000818C890707D501684A6801231B049A4319
:10132000C36A1A434A60818C490707D501684A6835
:1013300001239B049A43036B1A434A60818C09077B
:1013400007D501684A680123DB039A43436B1A43BC
:101350004A60818CC90607D501688A6801231B038E
:101360009A43836B1A438A60818C890607D501688A
:101370008A6801235B039A43C36B1A438A60818C9A
:10138000490612D501684B6801221205046C93438B
:1013900023434B60016C914207D101684A680323E3
:1013A0005B059A43436C1A434A60818C090607D552
:1013B00001684A680123DB04806C9A4302434A6057
:1013C00010BD0022C266202160304172817202721B
:1013D0001046704710B5406A0022014640314A83EA
:1013E0004A82FFF739FC10BD01680A68FF232133E8
:1013F0009A430A6001688A68520852008A60202174
:1014000060308172704710B501680A6840239A43C2
:101410000A60202269210A54FFF708FE002010BD4F
:1014200070B50246403201466031938B8D7A0C468E
:101430000168222D05D088690822104388610220A6
:1014400070BD898C012685683603B54202D10569D5
:10145000002D0BD01940436D5D1C45651970518BF3
:10146000491E0904090C518307D015E0456D194048
:101470002980416D891C4165F1E701680A68FF23F5
:1014800021339A430A6001688A68520852008A60D0
:101490002021A172FFF712FD002070BDF8B50446AF
:1014A000A3682269E6691343626910210020324370
:1014B0001343226805461668394F3E401E431660A6
:1014C0002268536803263603B343E6683343536008
:1014D000A369226A1343226896680B273F02BE4322
:1014E0001E4396602F4A126B9207920F06D0012A74
:1014F00008D0022A08D0032A07D101E0002104E025
:10150000022102E0042100E008210122E369D20364
:10151000934224D100290CD002290DD0042913D0E4
:10152000082917D00125010909010007400F0843C8
:1015300032E0FFF769F909E061681B4A4808801842
:10154000FEF7CEFD80B2EEE7FFF76EF9616840006E
:101550004A08F4E76168012248081204EFE700290D
:1015600008D0022909D004290BD008290ED0012562
:101570002846F8BDFFF748F905E061680B4A4808BE
:1015800006E0FFF751F961684A0801E06168480820
:101590008018FEF7A5FD80B22168C860E8E700006A
:1015A000F369FFFF001002400024F40000127A00EB
:1015B0006921095C212901D0022070470146403190
:1015C0004A8A002A12D0012382681B039A4202D160
:1015D0000269002A15D0C26C531CC36400681278DB
:1015E0000285488A401E48820020704701680A68C8
:1015F00080239A430A600068016840221143016019
:10160000F2E7C26C03681288D205D20D1A85C26C4B
:10161000921CC264E5E7000010B50248FFF71EFB0C
:1016200010BD0000A0000020FEE730B47446641E28
:101630002578641CAB4200D21D46635D5B00E31855
:1016400030BC184702E008C8121F08C1002AFAD1AE
:1016500070477047002001E001C1121F002AFBD132
:1016600070470000810702D50921090401E0092122
:101670004904C00704D10320C0048143182001435A
:101680000148816170470000000400481821484368
:101690000A4910B50122401842800179042905D079
:1016A0000179052902D00079062805D10520FEF729
:1016B00081FF0620FEF77EFF10BD00001C00002009
:1016C00070B5054615480088154CC00729460FD04F
:1016D000002000F027F82946012000F027F92946CC
:1016E000022000F01FF82946032000F01FF912E045
:1016F000002000F017F801210022C9026068FEF7FF
:1017000009FF2946022000F00DF801210022C9033B
:101710006068FEF7FFFE258070BD00000800002015
:1017200000000020F3B5664881B00088029C444068
:10173000FEF7F6FE06460198019D47006148182114
:10174000C05B4D43604920406C18002818D05E48AB
:1017500001214153E068A060E660A068E168A268EA
:101760002130914206D8E168A268914205D0A16873
:10177000814205D9E168814202D80198FFF786FFCE
:1017800051482279FF2191311300FFF74EFF0705E1
:101790000C242B4B5C710500415B002941D00021DA
:1017A000415301203BE02069212100F005FA002887
:1017B00037D0444801220830C15B41484068FEF7F9
:1017C000A9FE4148415B002903D0002141536180BB
:1017D00024E0022035E0415B002922D00021415362
:1017E00003201CE02069212100F0E6F9002818D030
:1017F0003548405B00283548C15B08D0304801229D
:101800004068FEF787FE30490020485340E02C48EE
:1018100000224068FEF77EFE002012E004202071C6
:101820002661FEBD206900F0C7F90028F9D02661C5
:101830002648C15B22484068FEF768FE0020A0826F
:1018400005202071FEBD20693C2100F0B5F900287B
:10185000F8D026611D48C15B19484068FEF756FE66
:10186000A08A401CA082A08A0228EBD90620E8E7C3
:10187000206900F0A1F90028E4D00520FEF7A4FEBD
:101880000620FEF7A1FE10486188002902D0002042
:101890006080C3E7002646530A480299C05B0842AD
:1018A0000A48C15B05D0064801224068FEF732FEB7
:1018B0008FE7034800224068FEF72CFE2671FEBD2C
:1018C00000000020E41B00081C000020EC1B0008A6
:1018D000F8B50446FEF724FE0021114F114D0B46CA
:1018E0004A00BA5A224205D0182601224E437619E0
:1018F000327103E018224A435219137118260A461E
:101900007243AB52521953809060D0601061938241
:10191000491C89B20429E3D303480480F8BD0000C0
:10192000E41B00081C00002000000020420010B54D
:101930000648835A07480B4205494068895A01D036
:10194000012200E00022FEF7E5FD10BDE41B0008C7
:10195000EC1B00080000002010B502480088FFF7CB
:10196000AFFE10BD0000002070B5104D104E0024D9
:101970006000295A01227068FEF7CCFD641CE4B2B5
:10198000042CF5D30B4920208861FF20F530FEF7A9
:10199000EDFC00246000295A00227068FEF7BAFDB1
:1019A000641CE4B2042CF5D370BD0000EC1B0008ED
:1019B000000000200004004808B5FEF7BFFDFFF757
:1019C00031FCFFF75FFBFFF7D7FBFFF731FB00228E
:1019D00001210520FEF702FE002201210620FEF76C
:1019E000FDFD01210722C90692023348FEF72AFCB9
:1019F000324D686068680924E406002840D0FF265C
:101A00002F4D01363701002220212846FEF782FDA6
:101A1000002231462046FEF77DFD01210022C90249
:101A20002046FEF777FD002239462046FEF772FD7C
:101A300001210022C9032046FEF76CFDFF202D3056
:101A4000FEF794FC012220212846FEF763FD0122C7
:101A500031462046FEF75EFD0122D1022046FEF708
:101A600059FD012239462046FEF754FD0122D103DB
:101A70002046FEF74FFDFF202D30FEF777FCC2E732
:101A800020690007000F288000F066F82888FFF71B
:101A90001FFF0C480078FF2801D0FFF765FF30BF1B
:101AA0002888FFF70DFE00F045F801226946064838
:101AB000FFF7C0F9F3E700007C0000200C000020D5
:101AC00000040048FC7F0008A000002070B5054617
:101AD0000446124840884440A00708D010491B2003
:101AE00088616420FEF742FC2846FFF7BBFD0D48E5
:101AF000610706D5690701D5012101E0012109042B
:101B00008161210706D5290701D5022101E00121C4
:101B100049048161FFF720FF70BD0000080000202C
:101B2000000400480014004801480088C0B2704713
:101B30000800002070B50920C0060069054D0006A8
:101B4000040F6888844204D02046FFF7BFFF6C80F2
:101B50002C8070BD0800002070B50920C006006907
:101B6000054D0006040F002028806880204600F004
:101B700005F86C802C8070BD0800002010B502466E
:101B80000B491B2088611046FFF76CFD094950077F
:101B900001D5012001E0012000048861100701D572
:101BA000022001E0012040048861FFF7D5FE10BD4E
:101BB000000400480014004870B50D460446FEF7C6
:101BC000AFFC61198C4201D2814207D3A04201D2FD
:101BD0008C4203D3814203D2A04201D2012070BDC6
:101BE000002070BD01000200040008000001000890
:101BF000001000800000000000000000010203044B
:101C00000607080900000000010203042C1C00085C
:101C1000000000201C00000044160008481C0008BA
:101C20001C000020F404000054160008000000000E
:101C3000000000480000000000000000000000005C
:081C400000127A000000000010
:020000040800F2
:046FFC00F6081CB6C1
:047FFC00010204007A
:04000005080000B13E
:00000001FF
